:100000000C9463000C944E080C9427080C948B00FD
:100010000C948B000C948B000C948B000C948B0034
:100020000C948B000C948B000C948B000C94C708E0
:100030000C948B000C948B000C948B000C948B0014
:100040000C94DD070C948B000C94D0030C94AA0341
:100050000C948B000C948B000C948B000C948B00F4
:100060000C948B000C948B0004040404040404041A
:100070000202020202020303030303030102040853
:100080001020408001020408102001020408102002
:1000900000000000240027002A00000000002500C6
:1000A00028002B000000000023002600290000008B
:1000B0000008000201000003040700000000000027
:1000C0000000360B660E11241FBECFEFD8E0DEBF56
:1000D000CDBF11E0A0E0B1E0E6EEF6E202C005908F
:1000E0000D92AA38B107D9F722E0AAE8B1E001C021
:1000F0001D92A438B207E1F710E0C2E6D0E004C0D8
:100100002197FE010E943C11C136D107C9F70E9418
:10011000DB0B0C9466130C940000CF92DF92EF92ED
:10012000FF920F931F93CF93DF936C017A018B01A2
:10013000C0E0D0E0CE15DF0589F0D8016D918D01CA
:10014000D601ED91FC910190F081E02DC601099559
:10015000892B11F47E0102C02196ECCFC701DF91FB
:10016000CF911F910F91FF90EF90DF90CF90089566
:10017000089580E090E0089580E991E00E943304C2
:1001800021E0892B09F420E0822F0895CF93DF939B
:10019000EC0188819981009711F00E94D711198292
:1001A00018821D821C821B821A82DF91CF910895D2
:1001B000EF92FF920F931F93CF93DF93EC0181E0B7
:1001C000888F9B8D8C8D981305C0E889F989808173
:1001D00085FD24C0F62E0B8D10E00F5F1F4F0F73AF
:1001E0001127E02E8C8DE8120CC00FB607FCFACF59
:1001F000E889F989808185FFF5CFCE010E94160735
:10020000F1CF8B8DFE01E80FF11DE35AFF4FF08215
:100210000B8FEA89FB898081806207C0EE89FF89A4
:100220006083E889F98980818064808381E090E03F
:10023000DF91CF911F910F91FF90EF900895CF9391
:10024000DF93EC01888D8823C9F0EA89FB898081DE
:1002500085FD05C0A889B9898C9186FD0FC00FB6B0
:1002600007FCF5CF808185FFF2CFA889B9898C91F1
:1002700085FFEDCFCE010E941607E7CFDF91CF912A
:100280000895009769F0FC0101900020E9F731978B
:10029000AF01481B590BBC0180E991E00C948D0023
:1002A00080E090E00895CF92DF92EF92FF92DC0120
:1002B000A03282E0B8070CF03EC0B7FD06C0A53BF7
:1002C000B1052CF0A4EBB0E002C0A0E0B0E080915A
:1002D000530228E830E06901C81AD10887FDD39499
:1002E000CC0CDD1CCC0CDD1C0D2C000CEE08FF082A
:1002F0008091540228E532E0281B310987FD3395AF
:10030000220F331F220F331FA901330F660B770B08
:100310009A01AB012C193D094E095F090E94211079
:1003200024EB30E040E050E00E94F70FC20ED31EF5
:10033000E41EF51ED601909152029C3098F58091F2
:10034000530248E850E0481B510987FD5395440F7C
:10035000551F440F551FA417B5078CF08091540208
:1003600028E532E0281B310987FD3395220F331F22
:10037000220F331FAD012A173B070CF4A90142508D
:100380005109440F551F2FB7F894892F90E0FC01B5
:10039000EE0FFF1F8E0F9F1FFC01E35DFD4F528389
:1003A00041832FBFFF90EF90DF90CF9008958F9201
:1003B0009F92AF92BF92CF92DF92EF92FF920F93F4
:1003C0001F93CF93DF93CDB7DEB7C054D1400FB6A4
:1003D000F894DEBF0FBECDBF2FB7F89440918C01CB
:1003E00050918D0160918E0170918F012FBFFC01A2
:1003F00001851285238534856A017B01C01AD10AE3
:10040000E20AF30AE0EDCE16E7E0DE06E104F104CD
:1004100018F4FC018189B4C08C01FC01418752872A
:10042000638774871482138212821182108261E0C2
:1004300085810E9437076AEF70E080E090E00E94BB
:10044000A30761E0F80185810E94670760E0F80179
:1004500085810E94370764E170E080E090E00E94AF
:10046000A307F89461E0F80185810E9437078BE9C2
:1004700090E00197F1F762E0F80185810E9467073B
:1004800083E290E00197F1F760E0C8010E947508EF
:10049000672B682B692B21F4F801118A789441C0ED
:1004A00061E0C8010E947508672B682B692BA1F3D6
:1004B000CE0101967C015E019FEBA91A9EEFB90A5D
:1004C000670160E0C8010E947508F60160837183CE
:1004D0008283938361E0C8010E947508F6016483FA
:1004E000758386839783F8E0CF0ED11CCA14DB0492
:1004F00041F7789420E030E0F7014081518162813A
:10050000738184809580A680B7804115510561056F
:10051000710529F081149104A104B10421F4F801BA
:10052000118A80E02DC0F90183E0F595E7958A9561
:10053000E1F7E00FF11F8081880F481559056A0522
:100540007B0508F4816080832F5F3F4FF8E0EF0E5A
:10055000F11C2832310581F6F801248130E0408118
:10056000818190E0840F911D4281840F911D438110
:10057000840F911D99272817390789F681E0818B0F
:10058000C05CDE4F0FB6F894DEBF0FBECDBFDF916B
:10059000CF911F910F91FF90EF90DF90CF90BF9080
:1005A000AF909F908F900895FC0124813581232B7B
:1005B00031F421E061157105A1F0FB0108C0FC01D7
:1005C000808191816115710531F421E0FC01808108
:1005D000882339F005C00E94471321E0892B09F0D8
:1005E00020E0822F08950F931F93CF93DF93EC01A8
:1005F00088819981009729F02A813B812617370746
:1006000088F48B016F5F7F4F0E946F12009761F03B
:10061000998388831B830A832C813D81232B11F4CA
:10062000FC01108281E001C080E0DF91CF911F9139
:100630000F9108950F931F93CF93DF93EC010C81DB
:100640001D810F5F1F4FB8010E94F302882369F0DC
:10065000288139818C819D8160E871E0820F931F30
:100660000E9450131D830C8303C0CE010E94C6005C
:10067000CE01DF91CF911F910F910895EF92FF92DC
:100680000F931F93CF93DF93EC017B018A01BA0193
:100690000E94F302811104C0CE010E94C60007C06F
:1006A0001D830C83B701888199810E945013CE016C
:1006B000DF91CF911F910F91FF90EF900895CF930D
:1006C000DF93EC016115710559F0FB0101900020E9
:1006D000E9F73197AF01461B570B0E943E0302C05A
:1006E0000E94C600CE01DF91CF910895FB01DC018D
:1006F00011961C921E9213961C921E92129715969A
:100700001C921E9214978617970749F06081718199
:100710006115710521F0448155810C943E030895C3
:10072000FC01808191810C94D711FC01118210820F
:1007300013821282158214826115710551F0FB013A
:1007400001900020E9F73197AF01461B570B0C943D
:100750003E0308951F920F920FB60F9211242F930C
:100760003F934F935F936F937F938F939F93AF9339
:10077000BF93EF93FF9380E991E00E941607FF91EA
:10078000EF91BF91AF919F918F917F916F915F9109
:100790004F913F912F910F900FBE0F901F90189582
:1007A0001F920F920FB60F9211242F938F939F9346
:1007B000EF93FF93E091A001F091A1018081E0917E
:1007C000A601F091A70182FD12C090818091A9013C
:1007D0008F5F8F732091AA01821751F0E091A901D8
:1007E000F0E0E057FE4F958F8093A90101C0808112
:1007F000FF91EF919F918F912F910F900FBE0F90CE
:100800001F901895FC01538D448D252F30E0842FC7
:1008100090E0821B930B541710F0CF960895019728
:100820000895FC01918D828D981761F0828DDF0112
:10083000A80FB11D5D968C91928D9F5F9F73928FD3
:1008400090E008958FEF9FEF0895FC01918D828DC8
:10085000981731F0828DE80FF11D858D90E0089595
:100860008FEF9FEF0895FC01918D228D892F90E0ED
:10087000805C9F4F821B91098F739927089580E0B8
:1008800090E0892B29F00E94BC0081110C9400009B
:100890000895833081F028F4813099F08230A1F0FE
:1008A00008958730A9F08830B9F08430D1F4809170
:1008B00080008F7D03C0809180008F7780938000BF
:1008C000089584B58F7702C084B58F7D84BD089567
:1008D0008091B0008F7703C08091B0008F7D8093AE
:1008E000B0000895CF93DF93282F30E0F901E2554F
:1008F000FF4F8491F901E458FF4FD491F901E85971
:10090000FF4FC491CC2391F081110E944904EC2F38
:10091000F0E0EE0FFF1FEC55FF4FA591B491EC9165
:10092000ED2381E090E021F480E002C080E090E0DF
:10093000DF91CF9108953FB7F89480917C02909118
:100940007D02A0917E02B0917F0226B5A89B05C0D2
:100950002F3F19F00196A11DB11D3FBFBA2FA92F3E
:10096000982F8827820F911DA11DB11DBC01CD01BB
:1009700042E0660F771F881F991F4A95D1F70895A7
:10098000089508950E943913CF92DF92EF92FF925B
:100990000F931F93CF93DF93EB0124E2FB0111929E
:1009A0002A95E9F744E250E060E070E0488359831B
:1009B0006A837B83FC0145815681678170854C8306
:1009C0005D836E837F834CE050E060E070E0488799
:1009D00059876A877B872FB7F89440918C01509193
:1009E0008D0160918E0170918F012FBF488B598BC3
:1009F0006A8B7B8B03811481C8010E94D7018823F5
:100A0000A1F1F80186818B3041F178F18551823076
:100A100060F5F801608170E080E090E00E94D80EFF
:100A200020E030E040E853E40E94390F6B017C0184
:100A3000F8018181682F70E080E090E00E94DA0E7A
:100A40009B01AC01C701B6010E9492102DEC3CEC59
:100A50004CEC5DE30E94390F0CC0F801608170E03E
:100A600080E090E00E94D80E04C060E070E080EC6E
:100A70009FE76C8B7D8B8E8B9F8B81E0DF91CF917D
:100A80001F910F91FF90EF90DF90CF9008958F927C
:100A90009F92AF92BF92FF920F931F93CF93DF93DA
:100AA000EB0124E2FB0111922A95E9F744E250E0C0
:100AB00060E070E0488359836A837B83FC01458151
:100AC0005681678170854C835D836E837F834DE0A3
:100AD00050E060E070E0488759876A877B872FB7CE
:100AE000F89440918C0150918D0160918E0170912C
:100AF0008F012FBF488B598B6A8B7B8B03811481AD
:100B0000C8010E94D7018823D1F1F80186818B307A
:100B100029F0A8F18551823048F031C0F801628196
:100B200070E080E090E00E94D80E2DC0F801F280C5
:100B30006F2D6F7770E080E090E00E94DA0E20E089
:100B400030E040E853E40E94390F4B015C01F801AA
:100B50008381682F70E080E090E00E94DA0E9B01B4
:100B6000AC01C501B4010E9492102DEC3CEC4CECA0
:100B70005DE30E94390FF7FE06C0905804C060E0A4
:100B800070E080EC9FE76C8B7D8B8E8B9F8B81E080
:100B9000DF91CF911F910F91FF90BF90AF909F90E9
:100BA0008F900895CF93DF93EB01FC0182894BE096
:100BB00050E0853139F0863141F08B3049F46AE5F7
:100BC00071E008C060E671E005C066E671E002C051
:100BD0006CE671E0CE010E9457131B86DF91CF9126
:100BE00008950F931F93CF93DF938C01EB0188E25D
:100BF000DB011D928A95E9F7F801838194810E94B7
:100C0000D20581E090E0A0E0B0E08C879D87AE87C0
:100C1000BF87F80185819681A781B085888B998BE4
:100C2000AA8BBB8B8CE090E0A0E0B0E08C8B9D8B1E
:100C3000AE8BBF8B0380F481E02D8289853149F032
:100C4000863139F08B3029F480E492E4AFE0B0E0F3
:100C500004C080E894E8AEE1B0E08CA39DA3AEA30D
:100C6000BFA382898531C9F08631B9F08B3051F547
:100C700080E090E0A0EAB2E4888F998FAA8FBB8FC2
:100C800080E090E0A0EAB1E48C8F9D8FAE8FBF8FA3
:100C900080E090E0A0EAB0E410C080E090E0A8EC32
:100CA000B2E4888F998FAA8FBB8F1C8E1D8E1E8EEB
:100CB0001F8E8DEC9CECACECBDE388A399A3AAA39A
:100CC000BBA30CC0188E198E1A8E1B8E1C8E1D8E07
:100CD0001E8E1F8E18A219A21AA21BA2DF91CF91FD
:100CE0001F910F9108950F931F93CF93DF938C0162
:100CF000EB0188E2DB011D928A95E9F7F801838117
:100D000094810E94D20581E090E0A0E0B0E08C8761
:100D10009D87AE87BF87F80185819681A781B085C1
:100D2000888B998BAA8BBB8B8DE090E0A0E0B0E024
:100D30008C8B9D8BAE8BBF8B0380F481E02D8289E1
:100D4000853149F0863139F08B3029F480E492E422
:100D5000AFE0B0E004C080E894E8AEE1B0E08CA37E
:100D60009DA3AEA3BFA382898531A9F08631C1F0CE
:100D70008B3079F580E090E0A8E4B2E4888F998F19
:100D8000AA8FBB8F1C8E1D8E1E8E1F8E80E090E062
:100D9000A0E0B0E419C080E090E0A0EAB2E404C0B2
:100DA00080E090E0AAEFB2E4888F998FAA8FBB8F82
:100DB00080E090E0A0E2B2EC8C8F9D8FAE8FBF8F71
:100DC0008DEC9CECACECBDE388A399A3AAA3BBA3D8
:100DD0000CC0188E198E1A8E1B8E1C8E1D8E1E8EA8
:100DE0001F8E18A219A21AA21BA2DF91CF911F91E8
:100DF0000F9108950C94D7110C94D71182E00E94A2
:100E00007204019719F481E791E002C085E791E04F
:100E10000C94410183E00E947204892B19F08AE747
:100E200091E002C082E891E00C944101FC01848DC4
:100E3000DF01A80FB11DA35ABF4F2C91848D90E004
:100E400001968F739927848FA689B7892C93A089DF
:100E5000B1898C9180648C93938D848D981306C096
:100E60000288F389E02D80818F7D808308951F9310
:100E7000CF93DF93282F30E0F901E255FF4F8491A3
:100E8000F901E458FF4FD491F901E859FF4FC4919B
:100E9000CC23C9F0162F81110E944904EC2FF0E0F9
:100EA000EE0FFF1FE656FF4FA591B4918FB7F89450
:100EB000111105C09C91ED2FE095E92302C0EC9142
:100EC000ED2BEC938FBFDF91CF911F910895CF93BE
:100ED000DF9390E0FC01E458FF4F2491FC01E859B6
:100EE000FF4F8491882361F190E0880F991FFC01E6
:100EF000E057FF4FC591D491FC01E656FF4FA591F5
:100F0000B491611109C09FB7F8948881209582231C
:100F10008883EC912E230BC0623061F49FB7F89464
:100F20003881822F809583238883EC912E2B2C93FC
:100F30009FBF06C08FB7F894E8812E2B28838FBF00
:100F4000DF91CF9108958F929F92AF92BF92CF92EF
:100F5000DF92EF92FF926B017C010E949B044B0198
:100F60005C01C114D104E104F104F1F00E949B047E
:100F7000DC01CB0188199909AA09BB09883E934075
:100F8000A105B10570F321E0C21AD108E108F1080A
:100F900088EE880E83E0981EA11CB11CC114D104F8
:100FA000E104F10419F7DDCFFF90EF90DF90CF90CF
:100FB000BF90AF909F908F9008951F920F920FB6A1
:100FC0000F9211242F933F938F939F93AF93BF93CF
:100FD00080918C0190918D01A0918E01B0918F0133
:100FE00030917B0223E0230F2D3720F40196A11DC1
:100FF000B11D05C026E8230F0296A11DB11D209347
:101000007B0280938C0190938D01A0938E01B0930D
:101010008F0180917C0290917D02A0917E02B0911F
:101020007F020196A11DB11D80937C0290937D02E9
:10103000A0937E02B0937F02BF91AF919F918F9159
:101040003F912F910F900FBE0F901F9018951F92F8
:101050000F920FB60F9211242F933F934F935F93EC
:101060006F937F938F939F93AF93BF93EF93FF9370
:10107000E0910201F09103010995FF91EF91BF9179
:10108000AF919F918F917F916F915F914F913F9120
:101090002F910F900FBE0F901F9018951F920F92D7
:1010A0000FB60F9211242F933F934F935F936F933B
:1010B0007F938F939F93AF93BF93EF93FF93E091B1
:1010C0000001F09101010995FF91EF91BF91AF915E
:1010D0009F918F917F916F915F914F913F912F9150
:1010E0000F900FBE0F901F9018958F929F92AF9206
:1010F000BF92CF92DF92EF92FF920F931F93CF9305
:10110000DC011796CC911797662311F08C2F01C044
:1011100080E018962C91189730E0220F331F2C5541
:101120003F4F40E050E0BA01F90105911491F801F8
:1011300090819C23981315C06A017B019FEFC91A07
:10114000D90AE90AF90A1D968D909D90AD90BC9040
:101150005097481559056A057B0538F4B701A60173
:10116000E3CF342F252FCB0104C030E020E080E016
:1011700090E0632F722FCF911F910F91FF90EF900E
:10118000DF90CF90BF90AF909F908F9008951F9267
:101190000F920FB60F9211242F933F934F935F93AB
:1011A0006F937F938F939F93AF93BF93EF93FF932F
:1011B00080917A0287FF05C010928500109284000A
:1011C0001BC020917A02022E000C330B8091510239
:1011D00090E02817390784F480917A02082E000CD9
:1011E000990BFC01EE0FFF1F8E0F9F1FFC01E35DAB
:1011F000FD4F808186FD15C080917A028F5F8093BC
:101200007A0220917A02022E000C330B8091510257
:1012100090E028173907C4F480917A028C3064F189
:1012200013C080917A02082E000C990BFC01EE0F7E
:10123000FF1F8E0F9F1FFC01E35DFD4F808160E06B
:101240008F730E943707D8CF8091840090918500DA
:10125000049680349C4918F480E49CE905C0809190
:101260008400909185000496909389008093880073
:101270008FEF80937A023BC02091840030918500EB
:1012800080917A02082E000C990BFC01EE0FFF1FD3
:101290008E0F9F1FFC01E35DFD4F81819281820FC4
:1012A000931F909389008093880080917A02082E82
:1012B000000C990BFC01EE0FFF1F8E0F9F1FFC010E
:1012C000E35DFD4F808186FF12C080917A02082E77
:1012D000000C990BFC01EE0FFF1F8E0F9F1FFC01EE
:1012E000E35DFD4F808161E08F730E943707FF91BE
:1012F000EF91BF91AF919F918F917F916F915F918E
:101300004F913F912F910F900FBE0F901F90189506
:10131000089508958F929F92AF92BF92CF92DF92DD
:10132000EF92FF92CF93DF93EC0180918A0190912D
:101330008B0188519C4F90938B0180938A01CB3510
:10134000D10534F4C233D1052CF4C2E3D0E002C09D
:10135000CAE5D0E08091060190910701BE01681BAB
:10136000790B77FF03C071956195710988EE93E061
:101370000E9414116B018FEFC81AD80A46010D2C78
:10138000000CAA08BB0880910601909107018C17F8
:101390009D0784F40E945301C501B4010E94A30774
:1013A0008091060190910701019690930701809327
:1013B0000601E9CF0D2C000CEE08FF088091060114
:1013C00090910701C817D90784F40E945301C701FF
:1013D000B6010E94A3078091060190910701019731
:1013E0009093070180930601E9CFDF91CF91FF90A1
:1013F000EF90DF90CF90BF90AF909F908F90089527
:10140000CF92DF92EF92FF920F931F93CF93DF93D0
:10141000CDB7DEB72E970FB6F894DEBF0FBECDBFA7
:101420008C0161E871E0CE0107960E94950380E986
:1014300091E00E943304181619060CF077C080E979
:1014400091E00E9411048A30C1F5CE0101960E94FC
:10145000000A61E871E0CE0101960E94D40288235F
:10146000A1F08F819885F8019183808389859A8581
:10147000938382838B859C859583848318861F82C2
:101480001A8619861C861B8613C089819A81F801E9
:10149000918380838B819C81938382838D819E81C4
:1014A000958384831A8219821C821B821E821D826C
:1014B000CE0101960E9490034CC01A8219821C82B0
:1014C0001B821E821D828D871E86BE01635F7F4F39
:1014D000CE0101960E945F038D819E81C980DA80D2
:1014E000EB84FC84C114D104B1F00097A1F0E80EA4
:1014F000F91EB701CE0107960E94F302882359F026
:101500002F8138858B859C85B601820F931F0E94A1
:101510005013FC86EB86CE0101960E94900362E098
:1015200070E080E090E00E94A30781CF8F819885D2
:10153000F8019183808389859A85938382838B8543
:101540009C859583848318861F821A8619861C863B
:101550001B86CE0107960E949003C8012E960FB6F7
:10156000F894DEBF0FBECDBFDF91CF911F910F91D9
:10157000FF90EF90DF90CF900895DF92EF92FF926F
:101580000F931F93CF93DF9300D000D000D0CDB73F
:10159000DEB7DC0114960D911C911597011511050C
:1015A00009F454C0ED91FC913097A9F120812D32BE
:1015B00091F57C0161E871E0CE0101960E949503EE
:1015C000F7018481958182309105D8F080179107C9
:1015D00008F48C01D701ED91FC911197E00FF11FF8
:1015E000D08010826D917C916F5F7F4FCE0101960C
:1015F0000E945F03F70180819181FC01E00FF11FE0
:10160000D082CE0101960E94BD0A182FCE0101960C
:101610000E9490031CC020E030E020173107A4F4A2
:101620002017310738F4309729F0DF01A20FB31FDC
:101630008C9101C080E0082E000C990BC0970A978E
:1016400028F42F5F3F4FE9CF11E001C010E0812F58
:1016500026960FB6F894DEBF0FBECDBFDF91CF91B7
:101660001F910F91FF90EF90DF90089510929301DA
:101670001092920188EE93E0A0E0B0E08093940194
:1016800090939501A0939601B093970182E191E028
:10169000909391018093900185EC90E090939D014F
:1016A00080939C0184EC90E090939F0180939E0135
:1016B00080EC90E09093A1018093A00181EC90E0F8
:1016C0009093A3018093A20182EC90E09093A501F6
:1016D0008093A40186EC90E09093A7018093A601EB
:1016E0001092A9011092AA011092AB011092AC01C4
:1016F00025E532E086E080935A0286E180935B0222
:10170000E2E8F0E0E491E0935C02EEE6F0E0E491E0
:10171000E0935D0240E85EE360E070E040936202C7
:101720005093630260936402709365028093670232
:1017300082E391E0909369028093680230936C0297
:1017400020936B028FEF9FEFDC0180936D029093EB
:101750006E02A0936F02B093700244E251E0509386
:101760007202409371023093750220937402809349
:10177000760290937702A0937802B09379028091D9
:1017800051028C30A0F491E0980F90935102809315
:10179000520290E0FC01EE0FFF1F8E0F9F1FFC0115
:1017A000E35DFD4F88EB9BE09283818308958FEF8B
:1017B000809352020895CF93DF93CDB7DEB7CB5716
:1017C000D1090FB6F894DEBF0FBECDBF789484B5B3
:1017D000826084BD84B5816084BD85B5826085BD2D
:1017E00085B5816085BD80916E00816080936E00BB
:1017F00010928100809181008260809381008091AD
:10180000810081608093810080918000816080935D
:1018100080008091B10084608093B1008091B0001D
:1018200081608093B00080917A00846080937A0018
:1018300080917A00826080937A0080917A00816042
:1018400080937A0080917A00806880937A00109269
:10185000C10062E082E00E9467078AE097E090930F
:1018600003018093020180916900837F84608093EB
:101870006900E99A8EEF96E0909301018093000150
:10188000809169008C7F816080936900E89A8091E3
:1018900052028C3008F051C061E085E00E94670779
:1018A00080915202E82FF0E09F01220F331FE20FD8
:1018B000F31FE35DFD4F9081907C956090831092C3
:1018C0005302109254026CE00E9408112CE0829F97
:1018D000B001112440E050E09A01260F371FF901B2
:1018E000EE0FFF1F2E0F3F1FF901E35DFD4F9081AB
:1018F00096FD16C04F5F5F4F4C30510569F781115F
:101900000FC01092800082E08093810010928500C9
:1019100010928400B19A80916F00826080936F0072
:10192000E0915202F0E0CF01880F991FE80FF91FF4
:10193000E35DFD4F8081806480838AE590E00E94B2
:10194000530162E080915A020E94670780E398EF9A
:10195000AFEFBFEF80935E0290935F02A0936002AF
:10196000B0936102E091A001F091A10182E0808337
:10197000E0919C01F0919D011082E0919E01F09117
:101980009F018FEC80831092A801E091A401F09157
:10199000A50186E08083E091A201F091A3018081FE
:1019A00080618083E091A201F091A3018081886031
:1019B0008083E091A201F091A301808180688083FF
:1019C000E091A201F091A30180818F7D808380ED61
:1019D000E82E87E0F82E94E2392E22E3C22E21E091
:1019E000D22ECE018A589F4F0E94000ABE016A582B
:1019F0007F4FCE01875B9F4F0E947603CE01875BAE
:101A00009F4F0E94BD0A182FCE01875B9F4F0E94F7
:101A10009003112371F0E8968EAD9FADE897009783
:101A200019F00E94670E03C060E070E0CB01CB01AB
:101A300035C06AE471E0CE018A589F4F0E94D402FB
:101A4000882341F06AE471E0CE0183599F4F0E94E0
:101A500095034FC06FE471E0CE018A589F4F0E94FA
:101A6000D4028823F1F080910601909107018A3514
:101A7000910519F08233910559F4209104013091B8
:101A80000501319521953109309305012093040119
:101A90002091040130910501820F931F0E948A0951
:101AA00068C064E571E0CE018A589F4F0E94D4025D
:101AB000882309F43FC08091060190910701AF96F9
:101AC0001FAE1EAEAF97E1961FAE1EAEE197E39636
:101AD0001FAE1EAEE3974AE0BE01675B7F4F0E94D8
:101AE0008E0EBE01675B7F4FCE0183599F4F0E94D0
:101AF0005F03BE0163597F4FCE01875B9F4F0E94FA
:101B00007603CE01875B9F4F0E941A03FC0144813C
:101B100055816081718180E991E00E948D00CE0144
:101B2000875B9F4F0E949003CE0183599F4F0E9475
:101B300090031FC060908A0170908B01F0ED6F16CA
:101B4000F7E07F06B4F4870106191709053F21E085
:101B5000120714F004EF11E0B801012E000C880BFD
:101B6000990B0E94A307060D171D10938B0100937C
:101B70008A0180918A0190918B01803D97400CF4FD
:101B80009DC010928B0110928A01FE01E75BFF4F0E
:101B9000DE019596832D01900D928A95E1F7809153
:101BA0006A02E0968FAFE097AF96DFAECEAEAF970A
:101BB00080916B0290916C02E2969FAF8EAFE2979C
:101BC00080916D0290916E02A0916F02B0917002AF
:101BD000E6968CAF9DAFAEAFBFAFE697BE016B5D33
:101BE0007F4FCE0183599F4F0E94470549AC5AACA5
:101BF0006BAC7CACA3019201C301B2010E94031142
:101C0000882319F0412C512C3201FE01E75BFF4F74
:101C1000DE011196832D01900D928A95E1F7809156
:101C20007302E0968FAFE09784E291E0AF969FAFAA
:101C30008EAFAF978091740290917502E2969FAF3C
:101C40008EAFE2978091760290917702A091780210
:101C5000B0917902E6968CAF9DAFAEAFBFAFE6977D
:101C6000BE016F5F7F4FCE0183599F4F0E94C40416
:101C70008D889E88AF88B88CA5019401C501B401F8
:101C80000E940311811116C020E030E040EF51E4C2
:101C9000C301B2010E94FE10181664F420E030E087
:101CA00040EA52E4C501B4010E94FE10181614F473
:101CB00061E001C060E084E00E943707CE018A58ED
:101CC0009F4F0E9490030E943F048BCE08951F9364
:101CD000FC0199278827BC01E89411911032E9F39F
:101CE000193010F01E30C8F31B3251F01D3249F488
:101CF000689406C00E94990E610F711D811D911D8F
:101D0000119110531A30B0F33EF490958095709570
:101D100061957F4F8F4F9F4F1F910895BB274A308A
:101D200031F4992322F4BDE2909581959F4F0C9454
:101D3000AF0E592F482F372F262F660F771F881F7A
:101D4000991F660F771F881F991F620F731F841FCB
:101D5000951F660F771F881F991F0895BB27FB01EA
:101D60005527AA27880F991FAA1FA41710F0A41B94
:101D700083955051B9F7A05DAA3308F0A95DA193EE
:101D8000009779F7B111B1931192CB010C94C80E61
:101D9000DC01FC01672F71917723E1F7329704C0D2
:101DA0007C916D9370836291AE17BF07C8F308955D
:101DB000E89409C097FB3EF49095809570956195E5
:101DC0007F4F8F4F9F4F9923A9F0F92F96E9BB279B
:101DD0009395F695879577956795B795F111F8CF17
:101DE000FAF4BB0F11F460FF1BC06F5F7F4F8F4F82
:101DF0009F4F16C0882311F096E911C0772321F078
:101E00009EE8872F762F05C0662371F096E8862F0F
:101E100070E060E02AF09A95660F771F881FDAF766
:101E2000880F9695879597F90895990F0008550F93
:101E3000AA0BE0E8FEEF16161706E807F907C0F050
:101E400012161306E407F50798F0621B730B840B58
:101E5000950B39F40A2661F0232B242B252B21F432
:101E600008950A2609F4A140A6958FEF811D811DD2
:101E700008950E944C0F0C94BD0F0E94AF0F38F0D4
:101E80000E94B60F20F0952311F00C94A60F0C942D
:101E9000AC0F11240C94F10F0E94CE0F70F3959F9C
:101EA000C1F3950F50E0551F629FF001729FBB2751
:101EB000F00DB11D639FAA27F00DB11DAA1F649FED
:101EC0006627B00DA11D661F829F2227B00DA11DA0
:101ED000621F739FB00DA11D621F839FA00D611D26
:101EE000221F749F3327A00D611D231F849F600D47
:101EF000211D822F762F6A2F11249F5750409AF070
:101F0000F1F088234AF0EE0FFF1FBB1F661F771FFB
:101F1000881F91505040A9F79E3F510580F00C94C6
:101F2000A60F0C94F10F5F3FE4F3983ED4F386952F
:101F300077956795B795F795E7959F5FC1F7FE2B66
:101F4000880F911D9695879597F9089597F99F6742
:101F500080E870E060E008959FEF80EC0895002431
:101F60000A941616170618060906089500240A94FE
:101F700012161306140605060895092E0394000C84
:101F800011F4882352F0BB0F40F4BF2B11F460FF13
:101F900004C06F5F7F4F8F4F9F4F089557FD90583C
:101FA000440F551F59F05F3F71F04795880F97FB1D
:101FB000991F61F09F3F79F08795089512161306D7
:101FC0001406551FF2CF4695F1DF08C01616170606
:101FD0001806991FF1CF869571056105089408953B
:101FE000E894BB2766277727CB0197F90895052E3C
:101FF00097FB1EF400940E940E1057FD07D00E941C
:10200000601007FC03D04EF40C940E1050954095D0
:10201000309521953F4F4F4F5F4F08959095809594
:10202000709561957F4F8F4F9F4F08950E9482104A
:10203000A59F900DB49F900DA49F800D911D11241C
:102040000895B7FF0C9416100E941610821B930B74
:1020500008952F923F924F925F926F927F928F924C
:102060009F92AF92BF92CF92DF92EF92FF920F9327
:102070001F93CF93DF93CDB7DEB7CA1BDB0B0FB631
:10208000F894DEBF0FBECDBF09942A8839884888EE
:102090005F846E847D848C849B84AA84B984C88484
:1020A000DF80EE80FD800C811B81AA81B981CE0F7B
:1020B000D11D0FB6F894DEBF0FBECDBFED01089560
:1020C000A1E21A2EAA1BBB1BFD010DC0AA1FBB1F3C
:1020D000EE1FFF1FA217B307E407F50720F0A21BAE
:1020E000B30BE40BF50B661F771F881F991F1A941B
:1020F00069F760957095809590959B01AC01BD0145
:10210000CF010895A29FB001B39FC001A39F700D9E
:10211000811D1124911DB29F700D811D1124911DEF
:1021200008955058BB27AA270E94A9100C94BD0FF0
:102130000E94AF0F38F00E94B60F20F039F49F3F95
:1021400019F426F40C94AC0F0EF4E095E7FB0C9414
:10215000A60FE92F0E94CE0F58F3BA176207730734
:102160008407950720F079F4A6F50C94F00F0EF48F
:10217000E0950B2EBA2FA02D0B01B90190010C0197
:10218000CA01A0011124FF27591B99F0593F50F4AF
:10219000503E68F11A16F040A22F232F342F442707
:1021A000585FF3CF469537952795A795F0405395FF
:1021B000C9F77EF41F16BA0B620B730B840BBAF0CF
:1021C0009150A1F0FF0FBB1F661F771F881FC2F73A
:1021D0000EC0BA0F621F731F841F48F4879577954E
:1021E0006795B795F7959E3F08F0B0CF9395880F08
:1021F00008F09927EE0F9795879508950E94150F7F
:1022000008F48FEF08950E94150F880B990B08951D
:10221000991B79E004C0991F961708F0961B881F38
:102220007A95C9F78095089597FB072E16F40094C8
:1022300007D077FD09D00E94281107FC05D03EF495
:10224000909581959F4F0895709561957F4F089562
:10225000AA1BBB1B51E107C0AA1FBB1FA617B707CC
:1022600010F0A61BB70B881F991F5A95A9F78095E8
:102270009095BC01CD010895EE0FFF1F0590F491DC
:10228000E02D0994CF93DF938230910510F482E022
:1022900090E0E0918202F091830220E030E0C0E023
:1022A000D0E0309711F14081518148175907C0F0B3
:1022B0004817590761F482819381209719F09B8315
:1022C0008A832BC0909383028093820226C02115BB
:1022D000310519F04217530718F49A01BE01DF01C6
:1022E000EF010280F381E02DDCCF2115310509F1EA
:1022F000281B390B2430310590F412968D919C9156
:1023000013976115710521F0FB019383828304C04B
:102310009093830280938202FD01329644C0FD01B6
:10232000E20FF31F81939193225031092D933C9337
:102330003AC02091800230918102232B41F42091F8
:102340000A0130910B013093810220938002209189
:102350000801309109012115310541F42DB73EB72F
:1023600040910C0150910D01241B350BE09180022E
:10237000F0918102E217F307A0F42E1B3F0B281700
:10238000390778F0AC014E5F5F4F2417350748F0EE
:102390004E0F5F1F5093810240938002819391936F
:1023A00002C0E0E0F0E0CF01DF91CF9108950F93FC
:1023B0001F93CF93DF93009709F48CC0FC013297F1
:1023C000138212820091820210918302011511057D
:1023D00081F420813181820F931F209180023091FE
:1023E00081022817390779F5F0938102E093800282
:1023F00071C0D80140E050E0AE17BF0750F412960C
:102400002D913C911397AD012115310509F1D901A9
:10241000F3CF9D01DA013383228360817181860FBE
:10242000971F8217930769F4EC0128813981260FE1
:10243000371F2E5F3F4F318320838A819B81938397
:102440008283452B29F4F0938302E093820242C0F9
:102450001396FC93EE931297ED01499159919E01C9
:10246000240F351FE217F30771F480819181840FE7
:10247000951F029611969C938E9382819381139659
:102480009C938E931297E0E0F0E0D80112968D9124
:102490009C911397009719F0F8018C01F6CF8D915C
:1024A0009C9198012E5F3F4F820F931F20918002D5
:1024B000309181022817390769F4309729F4109276
:1024C00083021092820202C0138212821093810250
:1024D00000938002DF91CF911F910F910895A0E0AA
:1024E000B0E0E5E7F2E10C942D10EC01009721F447
:1024F000CB010E944211B8C0FC01E60FF71F9C01FE
:1025000022503109E217F30708F4ACC0D9010D914C
:102510001C91119706171707B0F00530110508F444
:102520009FC0C80104978617970708F499C0025006
:102530001109061B170B019311936D937C93CF0127
:102540000E94D7118DC05B01A01AB10A4C01800E08
:10255000911EA0918202B091830240E050E0E12CF4
:10256000F12C109709F44AC0A815B905D1F56D9062
:102570007C901197630182E0C80ED11CCA14DB0461
:1025800080F1A3014A195B096A0182E0C80ED11CDF
:102590001296BC9012971396AC91B5E0CB16D1046D
:1025A00040F0B282A38351834083D9016D937C9321
:1025B0000AC00E5F1F4FC301800F911FF901918365
:1025C0008083EB2DFA2FE114F10431F0D70113963B
:1025D000FC93EE93129744C0F0938302E09382023F
:1025E0003FC08D919C9111974817590708F4AC0191
:1025F0007D0112960D90BC91A02DB3CF80918002E9
:102600009091810288159905E1F446175707C8F49F
:102610008091080190910901009741F48DB79EB710
:1026200040910C0150910D01841B950BE817F9079F
:10263000C8F4F0938102E0938002F9017183608312
:102640000FC0CB010E9442117C01009759F0A801F4
:10265000BE010E943E13CE010E94D711C70104C0E3
:10266000CE0102C080E090E0CDB7DEB7EEE00C9482
:10267000491081E090E0F8940C946613FB01DC01B2
:1026800002C001900D9241505040D8F70895FB01CF
:10269000DC018D91019080190110D9F3990B0895F7
:1026A000FB01DC0101900D920020E1F70895FB0190
:1026B000DC014150504048F001900D920020C9F7D4
:1026C00001C01D9241505040E0F7089510E0C2E66D
:1026D000D0E004C0FE010E943C112196C336D10710
:0626E000C9F7F894FFCFDA
:1026E600C004C0043C005A000000840280000000C0
:1026F6000000D8008D0002041F01330411042504D4
:10270600000000008809FA06C104C404F1050000AF
:1027160000008909FC06C104470573060000000095
:1027260000000000C104C204C204696E697400732B
:1027360063616E00616E676C650044485431310018
:102746004448543231004448543232004448543FDD
:10275600004F4E0A004F46460A004F50454E45442C
:0A2766000A00434C4F5345440A009B
:107E0000112484B714BE81FFF0D085E080938100F7
:107E100082E08093C00088E18093C10086E0809377
:107E2000C20080E18093C4008EE0C9D0259A86E02C
:107E300020E33CEF91E0309385002093840096BBD3
:107E4000B09BFECF1D9AA8958150A9F7CC24DD24C4
:107E500088248394B5E0AB2EA1E19A2EF3E0BF2EE7
:107E6000A2D0813461F49FD0082FAFD0023811F036
:107E7000013811F484E001C083E08DD089C08234E0
:107E800011F484E103C0853419F485E0A6D080C0E4
:107E9000853579F488D0E82EFF2485D0082F10E0AE
:107EA000102F00270E291F29000F111F8ED06801E7
:107EB0006FC0863521F484E090D080E0DECF843638
:107EC00009F040C070D06FD0082F6DD080E0C81688
:107ED00080E7D80618F4F601B7BEE895C0E0D1E017
:107EE00062D089930C17E1F7F0E0CF16F0E7DF06D8
:107EF00018F0F601B7BEE89568D007B600FCFDCFD4
:107F0000A601A0E0B1E02C9130E011968C91119780
:107F100090E0982F8827822B932B1296FA010C0160
:107F200087BEE89511244E5F5F4FF1E0A038BF0790
:107F300051F7F601A7BEE89507B600FCFDCF97BE46
:107F4000E89526C08437B1F42ED02DD0F82E2BD052
:107F50003CD0F601EF2C8F010F5F1F4F84911BD097
:107F6000EA94F801C1F70894C11CD11CFA94CF0C13
:107F7000D11C0EC0853739F428D08EE10CD085E9AC
:107F80000AD08FE07ACF813511F488E018D01DD067
:107F900080E101D065CF982F8091C00085FFFCCF94
:107FA0009093C60008958091C00087FFFCCF809118
:107FB000C00084FD01C0A8958091C6000895E0E648
:107FC000F0E098E1908380830895EDDF803219F02E
:107FD00088E0F5DFFFCF84E1DECF1F93182FE3DFCA
:107FE0001150E9F7F2DF1F91089580E0E8DFEE27F6
:047FF000FF270994CA
:027FFE00040479
:0400000300007E007B
:00000001FF