:100000000C9463000C9483060C945C060C948B0097
:100010000C948B000C948B000C948B000C948B0034
:100020000C948B000C948B000C948B000C94FC06AD
:100030000C948B000C948B000C948B000C948B0014
:100040000C9412060C948B000C945F040C943904ED
:100050000C948B000C948B000C948B000C948B00F4
:100060000C948B000C948B000000000024002700EF
:100070002A0000000000250028002B0000000000DE
:1000800023002600290000000008000201000003F0
:10009000040700000000000000000404040404043D
:1000A0000404020202020202030303030303010227
:1000B00004081020408001020408102001020408F6
:1000C0001020170B160B11241FBECFEFD8E0DEBF98
:1000D000CDBF11E0A0E0B1E0E2EFFFE102C005908A
:1000E0000D92AC37B107D9F722E0ACE7B1E001C01F
:1000F0001D92A437B207E1F710E0C2E6D0E004C0D9
:100100002197FE010E94C20DC136D107C9F70E9496
:100110004B090C94EC0F0C940000089580E090E0E3
:100120000895FC01538D448D252F30E0842F90E0FD
:10013000821B930B541710F0CF96089501970895E2
:10014000FC01918D828D981761F0828DDF01A80FDF
:10015000B11D5D968C91928D9F5F9F73928F90E001
:1001600008958FEF9FEF0895FC01918D828D981770
:1001700031F0828DE80FF11D858D90E008958FEFAD
:100180009FEF0895FC01918D228D892F90E0805C76
:100190009F4F821B91098F739927089586E891E0FC
:1001A0000E94C20021E0892B09F420E0822F0895EB
:1001B000FC01848DDF01A80FB11DA35ABF4F2C9104
:1001C000848D90E001968F739927848FA689B789D3
:1001D0002C93A089B1898C9180648C93938D848DAC
:1001E000981306C00288F389E02D80818F7D80837B
:1001F0000895EF92FF920F931F93CF93DF93EC013B
:1002000081E0888F9B8D8C8D981305C0E889F989D2
:10021000808185FD24C0F62E0B8D10E00F5F1F4FEF
:100220000F731127E02E8C8DE8120CC00FB607FC5F
:10023000FACFE889F989808185FFF5CFCE010E9448
:10024000D800F1CF8B8DFE01E80FF11DE35AFF4F6F
:10025000F0820B8FEA89FB898081806207C0EE897A
:10026000FF896083E889F98980818064808381E0E7
:1002700090E0DF91CF911F910F91FF90EF90089543
:10028000CF93DF93EC01888D8823C9F0EA89FB893D
:10029000808185FD05C0A889B9898C9186FD0FC034
:1002A0000FB607FCF5CF808185FFF2CFA889B98909
:1002B0008C9185FFEDCFCE010E94D800E7CFDF9172
:1002C000CF91089580E090E0892B29F00E94CE0024
:1002D00081110C9400000895833081F028F481305E
:1002E00099F08230A1F008958730A9F08830B9F0F4
:1002F0008430D1F4809180008F7D03C08091800094
:100300008F7780938000089584B58F7702C084B57D
:100310008F7D84BD08958091B0008F7703C0809158
:10032000B0008F7D8093B0000895CF93DF93282F86
:1003300030E0F901EA57FF4F8491F901E255FF4F90
:10034000D491F901E656FF4FC491CC2391F081116D
:100350000E946C01EC2FF0E0EE0FFF1FE458FF4FFE
:10036000A591B491EC91ED2381E090E021F480E03F
:1003700002C080E090E0DF91CF9108953FB7F894FC
:1003800080917E0190917F01A0918001B0918101C7
:1003900026B5A89B05C02F3F19F00196A11DB11DE0
:1003A0003FBFBA2FA92F982F8827820F911DA11D1B
:1003B000B11DBC01CD0142E0660F771F881F991F58
:1003C0004A95D1F70895089508950C945D0E0C9404
:1003D0005D0E82E00E949501019719F486E491E098
:1003E00002C08AE491E00C94EA0783E00E94950140
:1003F000892B19F08FE491E002C087E591E00C941D
:10040000EA070E94BF0FCF92DF92EF92FF920F9305
:100410001F93CF93DF93EB0124E2FB0111922A9506
:10042000E9F744E250E060E070E0488359836A8372
:100430007B83FC0145815681678170854C835D8398
:100440006E837F834CE050E060E070E0488759871E
:100450006A877B872FB7F89440918201509183017E
:1004600060918401709185012FBF488B598B6A8BF5
:100470007B8B03811481C8010E94FC078823A1F1B2
:10048000F80186818B3041F178F18551823060F539
:10049000F801608170E080E090E00E94BC0B20E0F9
:1004A00030E040E853E40E94F90B6B017C01F80155
:1004B0008181682F70E080E090E00E94BE0B9B017C
:1004C000AC01C701B6010E944A0D2DEC3CEC4CEC8E
:1004D0005DE30E94F90B0CC0F801608170E080E0E0
:1004E00090E00E94BC0B04C060E070E080EC9FE7ED
:1004F0006C8B7D8B8E8B9F8B81E0DF91CF911F91D9
:100500000F91FF90EF90DF90CF9008958F929F9280
:10051000AF92BF92FF920F931F93CF93DF93EB01A4
:1005200024E2FB0111922A95E9F744E250E060E0F1
:1005300070E0488359836A837B83FC01458156813F
:10054000678170854C835D836E837F834DE050E0CF
:1005500060E070E0488759876A877B872FB7F894F7
:1005600040918201509183016091840170918501D5
:100570002FBF488B598B6A8B7B8B03811481C801F9
:100580000E94FC078823D1F1F80186818B3029F085
:10059000A8F18551823048F031C0F801628170E0E5
:1005A00080E090E00E94BC0B2DC0F801F2806F2D1E
:1005B0006F7770E080E090E00E94BE0B20E030E0BA
:1005C00040E853E40E94F90B4B015C01F801838180
:1005D000682F70E080E090E00E94BE0B9B01AC01B0
:1005E000C501B4010E944A0D2DEC3CEC4CEC5DE3DE
:1005F0000E94F90BF7FE06C0905804C060E070E05E
:1006000080EC9FE76C8B7D8B8E8B9F8B81E0DF91E5
:10061000CF911F910F91FF90BF90AF909F908F90BF
:100620000895CF93DF93EB01FC0182894BE050E00A
:10063000853139F0863141F08B3049F46FE571E056
:1006400008C065E671E005C06BE671E002C061E7D5
:1006500071E0CE010E94DD0F1B86DF91CF910895DE
:100660000F931F93CF93DF938C01EB0188E2DB01A3
:100670001D928A95E9F7F801838194810E94110304
:1006800081E090E0A0E0B0E08C879D87AE87BF87D7
:10069000F80185819681A781B085888B998BAA8B7B
:1006A000BB8B8CE090E0A0E0B0E08C8B9D8BAE8BA0
:1006B000BF8B0380F481E02D8289853149F086313A
:1006C00039F08B3029F480E492E4AFE0B0E004C06C
:1006D00080E894E8AEE1B0E08CA39DA3AEA3BFA3F5
:1006E00082898531C9F08631B9F08B3051F580E0CF
:1006F00090E0A0EAB2E4888F998FAA8FBB8F80E048
:1007000090E0A0EAB1E48C8F9D8FAE8FBF8F80E028
:1007100090E0A0EAB0E410C080E090E0A8ECB2E481
:10072000888F998FAA8FBB8F1C8E1D8E1E8E1F8E59
:100730008DEC9CECACECBDE388A399A3AAA3BBA36E
:100740000CC0188E198E1A8E1B8E1C8E1D8E1E8E3E
:100750001F8E18A219A21AA21BA2DF91CF911F917E
:100760000F9108950F931F93CF93DF938C01EB01AB
:1007700088E2DB011D928A95E9F7F8018381948173
:100780000E94110381E090E0A0E0B0E08C879D879B
:10079000AE87BF87F80185819681A781B085888B58
:1007A000998BAA8BBB8B8DE090E0A0E0B0E08C8BA6
:1007B0009D8BAE8BBF8B0380F481E02D82898531C8
:1007C00049F0863139F08B3029F480E492E4AFE0CF
:1007D000B0E004C080E894E8AEE1B0E08CA39DA353
:1007E000AEA3BFA382898531A9F08631C1F08B30D9
:1007F00079F580E090E0A8E4B2E4888F998FAA8F21
:10080000BB8F1C8E1D8E1E8E1F8E80E090E0A0E0A0
:10081000B0E419C080E090E0A0EAB2E404C080E057
:1008200090E0AAEFB2E4888F998FAA8FBB8F80E007
:1008300090E0A0E2B2EC8C8F9D8FAE8FBF8F8DECDD
:100840009CECACECBDE388A399A3AAA3BBA30CC00A
:10085000188E198E1A8E1B8E1C8E1D8E1E8E1F8E4C
:1008600018A219A21AA21BA2DF91CF911F910F917A
:1008700008951F920F920FB60F9211242F933F935A
:100880004F935F936F937F938F939F93AF93BF9398
:10089000EF93FF9386E891E00E94D800FF91EF91DB
:1008A000BF91AF919F918F917F916F915F914F9188
:1008B0003F912F910F900FBE0F901F9018951F9290
:1008C0000F920FB60F9211242F938F939F93EF9354
:1008D000FF93E0919601F09197018081E0919C0156
:1008E000F0919D0182FD12C0908180919F018F5FE8
:1008F0008F732091A001821751F0E0919F01F0E0E9
:10090000EA57FE4F958F80939F0101C08081FF9130
:10091000EF919F918F912F910F900FBE0F901F908D
:1009200018951F93CF93DF93282F30E0F901EA57F2
:10093000FF4F8491F901E255FF4FD491F901E6563A
:10094000FF4FC491CC23C9F0162F81110E946C0176
:10095000EC2FF0E0EE0FFF1FEE58FF4FA591B49182
:100960008FB7F894111105C09C91ED2FE095E92304
:1009700002C0EC91ED2BEC938FBFDF91CF911F91D3
:100980000895CF93DF9390E0FC01E255FF4F24914F
:10099000FC01E656FF4F8491882361F190E0880FB7
:1009A000991FFC01E859FF4FC591D491FC01EE5805
:1009B000FF4FA591B491611109C09FB7F894888148
:1009C000209582238883EC912E230BC0623061F442
:1009D0009FB7F8943881822F809583238883EC9188
:1009E0002E2B2C939FBF06C08FB7F894E8812E2B37
:1009F00028838FBFDF91CF9108958F929F92AF92FE
:100A0000BF92CF92DF92EF92FF926B017C010E9426
:100A1000BE014B015C01C114D104E104F104F1F009
:100A20000E94BE01DC01CB0188199909AA09BB0902
:100A3000883E9340A105B10570F321E0C21AD108A8
:100A4000E108F10888EE880E83E0981EA11CB11C15
:100A5000C114D104E104F10419F7DDCFFF90EF9048
:100A6000DF90CF90BF90AF909F908F900895AF92FE
:100A7000BF92CF92DF92EF92FF920F931F93CF938B
:100A8000DF93CDB7DEB72E970FB6F894DEBF0FBE5B
:100A9000CDBF8C0118861F821A8619861C861B867C
:100AA00040E050E066E571E0CE0107960E94200923
:100AB0006E018DE0C80ED11C86E891E00E94C20054
:100AC000181619060CF085C086E891E00E94A00077
:100AD0008A3009F03FC0CE0101960E9437058D8112
:100AE0009E81009729F0E981FA812081211119C0A6
:100AF0008F819885D80111969C938E9389859A85CC
:100B000013969C938E9312978B859C8515969C9338
:100B10008E93149718861F821A8619861C861B8648
:100B200014C0D8011196FC93EE932B813C8113964F
:100B30003C932E93129715969C938E9314971A823A
:100B400019821C821B821E821D8289819A810E94C9
:100B50005D0E52C01A8219821C821B821E821D8267
:100B60008D871E86F60101900020E9F73197AF01CD
:100B70004C195D09B601CE0101960E9420098D81B4
:100B80009E81A980BA80EB84FC84A114B104B1F0E9
:100B90000097A1F0E80EF91EB701CE0107960E945A
:100BA000F908882359F02F8138858B859C85B501FC
:100BB000820F931F0E94D60FFC86EB8689819A8153
:100BC0000E945D0E62E070E080E090E00E94FD0413
:100BD00073CF8F819885F8019183808389859A8569
:100BE000938382838B859C859583848318861F825B
:100BF0001A8619861C861B868F8198850E945D0E39
:100C0000C8012E960FB6F894DEBF0FBECDBFDF91A0
:100C1000CF911F910F91FF90EF90DF90CF90BF90F9
:100C2000AF9008951F920F920FB60F9211242F9339
:100C30003F938F939F93AF93BF9380918201909145
:100C40008301A0918401B091850130917D0123E061
:100C5000230F2D3720F40196A11DB11D05C026E8F4
:100C6000230F0296A11DB11D20937D018093820167
:100C700090938301A0938401B093850180917E01BC
:100C800090917F01A0918001B09181010196A11DF9
:100C9000B11D80937E0190937F01A0938001B0935A
:100CA0008101BF91AF919F918F913F912F910F90B3
:100CB0000FBE0F901F9018951F920F920FB60F92B4
:100CC00011242F933F934F935F936F937F938F9351
:100CD0009F93AF93BF93EF93FF93E0910201F09145
:100CE00003010995FF91EF91BF91AF919F918F9172
:100CF0007F916F915F914F913F912F910F900FBE18
:100D00000F901F9018951F920F920FB60F921124FB
:100D10002F933F934F935F936F937F938F939F9303
:100D2000AF93BF93EF93FF93E0910001F091010126
:100D30000995FF91EF91BF91AF919F918F917F9115
:100D40006F915F914F913F912F910F900FBE0F9038
:100D50001F9018958F929F92AF92BF92CF92DF9281
:100D6000EF92FF920F931F93CF93DC011796CC91D4
:100D70001797662311F08C2F01C080E018962C91F4
:100D8000189730E0220F331F24583F4F40E050E0C7
:100D9000BA01F90105911491F80190819C239813EF
:100DA00015C06A017B019FEFC91AD90AE90AF90A3D
:100DB0001D968D909D90AD90BC905097481559050B
:100DC0006A057B0538F4B701A601E3CF342F252F40
:100DD000CB0104C030E020E080E090E0632F722F70
:100DE000CF911F910F91FF90EF90DF90CF90BF9028
:100DF000AF909F908F9008951F920F920FB60F9211
:100E000011242F933F934F935F936F937F938F930F
:100E10009F93AF93BF93EF93FF9380917C0187FFE4
:100E200005C010928500109284001BC020917C01A7
:100E3000022E000C330B8091470290E028173907EF
:100E400084F480917C01082E000C990BFC01EE0FBC
:100E5000FF1F8E0F9F1FFC01ED5DFD4F808186FD02
:100E600015C080917C018F5F80937C0120917C0173
:100E7000022E000C330B8091470290E028173907AF
:100E8000C4F480917C018C3064F113C080917C01AA
:100E9000082E000C990BFC01EE0FFF1F8E0F9F1FF9
:100EA000FC01ED5DFD4F808160E08F730E94910435
:100EB000D8CF8091840090918500049680349C491D
:100EC00018F480E49CE905C080918400909185002D
:100ED000049690938900809388008FEF80937C0123
:100EE0003BC0209184003091850080917C01082EC8
:100EF000000C990BFC01EE0FFF1F8E0F9F1FFC01D2
:100F0000ED5DFD4F81819281820F931F9093890047
:100F10008093880080917C01082E000C990BFC01C5
:100F2000EE0FFF1F8E0F9F1FFC01ED5DFD4F8081B7
:100F300086FF12C080917C01082E000C990BFC01E9
:100F4000EE0FFF1F8E0F9F1FFC01ED5DFD4F808197
:100F500061E08F730E949104FF91EF91BF91AF9177
:100F60009F918F917F916F915F914F913F912F91C1
:100F70000F900FBE0F901F90189508950895CF926F
:100F8000DF92EF92FF920F931F93CF93DF936C0149
:100F90007A018B01C0E0D0E0CE15DF0589F0D801E1
:100FA0006D918D01D601ED91FC910190F081E02DC4
:100FB000C6010995892B11F47E0102C02196ECCF60
:100FC000C701DF91CF911F910F91FF90EF90DF90BC
:100FD000CF900895009769F0FC0101900020E9F797
:100FE0003197AF01481B590BBC0186E891E00C9486
:100FF000BF0780E090E008958F929F92AF92BF92DA
:10100000CF92DF92EF92FF920F931F93CF93DF93D4
:10101000CDB7DEB7C054D1400FB6F894DEBF0FBED7
:10102000CDBF2FB7F8944091820150918301609118
:101030008401709185012FBFFC01018512852385F4
:1010400034856A017B01C01AD10AE20AF30AE0ED95
:10105000CE16E7E0DE06E104F10418F4FC01818914
:10106000B4C08C01FC014187528763877487148266
:10107000138212821182108261E085810E949104A4
:101080006AEF70E080E090E00E94FD0461E0F8010A
:1010900085810E94C10460E0F80185810E9491046D
:1010A00064E170E080E090E00E94FD04F89461E06B
:1010B000F80185810E9491048BE990E00197F1F796
:1010C00062E0F80185810E94C10483E290E001970B
:1010D000F1F760E0C8010E94AA06672B682B692B14
:1010E00021F4F801118A789441C061E0C8010E949E
:1010F000AA06672B682B692BA1F3CE0101967C0110
:101100005E019FEBA91A9EEFB90A670160E0C80172
:101110000E94AA06F601608371838283938361E053
:10112000C8010E94AA06F6016483758386839783AB
:10113000F8E0CF0ED11CCA14DB0441F7789420E00C
:1011400030E0F70140815181628173818480958014
:10115000A680B780411551056105710529F08114FC
:101160009104A104B10421F4F801118A80E02DC09A
:10117000F90183E0F595E7958A95E1F7E00FF11F16
:101180008081880F481559056A057B0508F4816040
:1011900080832F5F3F4FF8E0EF0EF11C28323105BE
:1011A00081F6F801248130E04081818190E0840F54
:1011B000911D4281840F911D4381840F911D9927B8
:1011C0002817390789F681E0818BC05CDE4F0FB6A6
:1011D000F894DEBF0FBECDBFDF91CF911F910F916D
:1011E000FF90EF90DF90CF90BF90AF909F908F9047
:1011F00008950F931F93CF93DF93EC01888199811A
:10120000009729F02A813B812617370788F48B0144
:101210006F5F7F4F0E94F50E009761F0998388837E
:101220001B830A832C813D81232B11F4FC01108246
:1012300081E001C080E0DF91CF911F910F9108956F
:10124000EF92FF920F931F93CF93DF93EC017B01FB
:101250008A01BA010E94F9082881398181110DC0E3
:101260002115310519F0C9010E945D0E19821882FD
:101270001D821C821B821A8206C01D830C83B7014B
:10128000C9010E94D60FCE01DF91CF911F910F911E
:10129000FF90EF900895CF93DF93CDB7DEB76297BD
:1012A0000FB6F894DEBF0FBECDBF789484B58260D0
:1012B00084BD84B5816084BD85B5826085BD85B5FA
:1012C000816085BD80916E00816080936E00109278
:1012D00081008091810082608093810080918100F3
:1012E0008160809381008091800081608093800084
:1012F0008091B10084608093B1008091B0008160E2
:101300008093B00080917A00846080937A0080910D
:101310007A00826080937A0080917A008160809365
:101320007A0080917A00806880937A001092C100E0
:1013300062E082E00E94C10485EF91E09093030196
:101340008093020180916900837F846080936900AB
:10135000E99A89EE91E090930101809300018091D8
:1013600069008C7F816080936900E89A80914802CF
:101370008C3008F051C061E085E00E94C10480918A
:101380004802E82FF0E09F01220F331FE20FF31F06
:10139000ED5DFD4F9081907C9560908310924902A5
:1013A00010924A026CE00E94B60D2CE0829FB001C0
:1013B000112440E050E09A01260F371FF901EE0F8B
:1013C000FF1F2E0F3F1FF901ED5DFD4F908196FD30
:1013D00016C04F5F5F4F4C30510569F781110FC048
:1013E0001092800082E0809381001092850010921C
:1013F0008400B19A80916F00826080936F00E091C9
:101400004802F0E0CF01880F991FE80FF91FED5D4A
:10141000FD4F80818064808390914A0280914902CF
:10142000F09048022BE02F1508F44EC028E532E07A
:101430006901C91AD10897FDD394CC0CDD1CCC0CE2
:10144000DD1C08E810E0081B110987FD1395000F4B
:10145000111F000F111F4801012E000CAA08BB0824
:10146000C6010D2C000CAA0BBB0B9C01AD01281969
:1014700039094A095B09AAE5B0E00E94D60C24EBC1
:1014800030E040E050E00E94B70C820E931EA41E94
:10149000B51E801691062CF08401C814D9040CF4F2
:1014A000860102501109000F111F2FB7F8948F2DDC
:1014B00090E0FC01EE0FFF1F8E0F9F1FFC01ED5D02
:1014C000FD4F128301832FBF62E0809150020E9482
:1014D000C10480E398EFAFEFBFEF80935402909385
:1014E0005502A0935602B0935702E0919601F091F5
:1014F000970182E08083E0919201F0919301108244
:10150000E0919401F09195018FEC808310929E01FF
:10151000E0919A01F0919B0186E08083E09198012F
:10152000F0919901808180618083E0919801F09130
:101530009901808188608083E0919801F091990100
:10154000808180688083E0919801F0919901808189
:101550008F7D8083CE010D960E94370589899A89F7
:10156000892B09F45CC066E771E08D859E850E9439
:10157000CD0F892B09F053C018861F821A86198651
:101580001C861B8644E050E066E771E0CE010796BA
:101590000E9420091A8219821C821B821E821D82CF
:1015A0006F8178856115710531F04B855C85CE01C1
:1015B00001960E9420090D811E810F5F1F4FB80107
:1015C000CE0101960E94F90829813A81882359F0B9
:1015D0008D819E8165E571E0820F931F0E94D60F79
:1015E0001E830D830CC02115310519F0C9010E941D
:1015F0005D0E1A8219821E821D821C821B824D8101
:101600005E8169817A8186E891E00E94BF078981C5
:101610009A810E945D0E8F8198850E945D0E8D8556
:101620009E850E945D0E0E94620194CF08951092E3
:1016300089011092880188EE93E0A0E0B0E08093E9
:101640008A0190938B01A0938C01B0938D018EE061
:1016500091E0909387018093860185EC90E09093D0
:1016600093018093920184EC90E090939501809394
:10167000940180EC90E0909397018093960181EC27
:1016800090E0909399018093980182EC90E0909380
:101690009B0180939A0186EC90E090939D0180934A
:1016A0009C0110929F011092A0011092A101109232
:1016B000A2012BE432E086E08093500286E1809321
:1016C0005102E4EBF0E0E491E0935202E0EAF0E052
:1016D000E491E093530240E85EE360E070E0409301
:1016E00058025093590260935A0270935B028093A0
:1016F0005D028EE291E090935F0280935E023093F0
:101700006202209361028FEF9FEFDC0180936302FE
:1017100090936402A0936502B093660240E251E0A8
:10172000509368024093670230936B0220936A02E1
:1017300080936C0290936D02A0936E02B0936F023F
:10174000809147028C30A0F491E0980F909347026B
:101750008093480290E0FC01EE0FFF1F8E0F9F1F49
:10176000FC01ED5DFD4F88EB9BE092838183089542
:101770008FEF809348020895E89409C097FB3EF4E8
:1017800090958095709561957F4F8F4F9F4F9923CE
:10179000A9F0F92F96E9BB279395F695879577954C
:1017A0006795B795F111F8CFFAF4BB0F11F460FF0C
:1017B0001BC06F5F7F4F8F4F9F4F16C0882311F064
:1017C00096E911C0772321F09EE8872F762F05C078
:1017D000662371F096E8862F70E060E02AF09A9513
:1017E000660F771F881FDAF7880F9695879597F908
:1017F00008950E940C0C0C947D0C0E946F0C38F024
:101800000E94760C20F0952311F00C94660C0C9439
:101810006C0C11240C94B10C0E948E0C70F3959FEB
:10182000C1F3950F50E0551F629FF001729FBB27D7
:10183000F00DB11D639FAA27F00DB11DAA1F649F73
:101840006627B00DA11D661F829F2227B00DA11D26
:10185000621F739FB00DA11D621F839FA00D611DAC
:10186000221F749F3327A00D611D231F849F600DCD
:10187000211D822F762F6A2F11249F5750409AF0F6
:10188000F1F088234AF0EE0FFF1FBB1F661F771F82
:10189000881F91505040A9F79E3F510580F00C944D
:1018A000660C0C94B10C5F3FE4F3983ED4F386953C
:1018B00077956795B795F795E7959F5FC1F7FE2BED
:1018C000880F911D9695879597F9089597F99F67C9
:1018D00080E870E060E008959FEF80EC08950024B8
:1018E0000A941616170618060906089500240A9485
:1018F00012161306140605060895092E0394000C0B
:1019000011F4882352F0BB0F40F4BF2B11F460FF99
:1019100004C06F5F7F4F8F4F9F4F089557FD9058C2
:10192000440F551F59F05F3F71F04795880F97FBA3
:10193000991F61F09F3F79F087950895121613065D
:101940001406551FF2CF4695F1DF08C0161617068C
:101950001806991FF1CF86957105610508940895C1
:10196000E894BB2766277727CB0197F90895052EC2
:1019700097FB1EF400940E94CE0C57FD07D00E94E6
:10198000180D07FC03D04EF40C94CE0C50954095E6
:10199000309521953F4F4F4F5F4F0895909580951B
:1019A000709561957F4F8F4F9F4F08950E943A0D1C
:1019B000A59F900DB49F900DA49F800D911D1124A3
:1019C00008952F923F924F925F926F927F928F92E3
:1019D0009F92AF92BF92CF92DF92EF92FF920F93BE
:1019E0001F93CF93DF93CDB7DEB7CA1BDB0B0FB6C8
:1019F000F894DEBF0FBECDBF09942A883988488885
:101A00005F846E847D848C849B84AA84B984C8841A
:101A1000DF80EE80FD800C811B81AA81B981CE0F11
:101A2000D11D0FB6F894DEBF0FBECDBFED010895F6
:101A3000A1E21A2EAA1BBB1BFD010DC0AA1FBB1FD2
:101A4000EE1FFF1FA217B307E407F50720F0A21B44
:101A5000B30BE40BF50B661F771F881F991F1A94B1
:101A600069F760957095809590959B01AC01BD01DB
:101A7000CF010895A29FB001B39FC001A39F700D35
:101A8000811D1124911DB29F700D811D1124911D86
:101A900008955058BB27AA270E94610D0C947D0C15
:101AA0000E946F0C38F00E94760C20F039F49F3FB2
:101AB00019F426F40C946C0C0EF4E095E7FB0C94EE
:101AC000660CE92F0E948E0C58F3BA176207730751
:101AD0008407950720F079F4A6F50C94B00C0EF469
:101AE000E0950B2EBA2FA02D0B01B90190010C012E
:101AF000CA01A0011124FF27591B99F0593F50F446
:101B0000503E68F11A16F040A22F232F342F44279D
:101B1000585FF3CF469537952795A795F040539595
:101B2000C9F77EF41F16BA0B620B730B840BBAF065
:101B30009150A1F0FF0FBB1F661F771F881FC2F7D0
:101B40000EC0BA0F621F731F841F48F487957795E4
:101B50006795B795F7959E3F08F0B0CF9395880F9E
:101B600008F09927EE0F979587950895991B79E0CE
:101B700004C0991F961708F0961B881F7A95C9F71D
:101B800080950895EE0FFF1F0590F491E02D0994C4
:101B9000CF93DF938230910510F482E090E0E091E2
:101BA0007202F091730220E030E0C0E0D0E03097A4
:101BB00011F14081518148175907C0F04817590762
:101BC00061F482819381209719F09B838A832BC0D3
:101BD000909373028093720226C02115310519F08B
:101BE0004217530718F49A01BE01DF01EF0102808A
:101BF000F381E02DDCCF2115310509F1281B390BCC
:101C00002430310590F412968D919C9113976115B3
:101C1000710521F0FB019383828304C090937302CA
:101C200080937202FD01329644C0FD01E20FF31F62
:101C300081939193225031092D933C933AC0209186
:101C4000700230917102232B41F4209106013091F2
:101C500007013093710220937002209104013091AA
:101C600005012115310541F42DB73EB7409108011A
:101C700050910901241B350BE0917002F091710223
:101C8000E217F307A0F42E1B3F0B2817390778F053
:101C9000AC014E5F5F4F2417350748F04E0F5F1FB2
:101CA00050937102409370028193919302C0E0E0DF
:101CB000F0E0CF01DF91CF9108950F931F93CF9361
:101CC000DF93009709F48CC0FC01329713821282D3
:101CD00000917202109173020115110581F42081A7
:101CE0003181820F931F2091700230917102281769
:101CF000390779F5F0937102E093700271C0D80151
:101D000040E050E0AE17BF0750F412962D913C9181
:101D10001397AD012115310509F1D901F3CF9D01CB
:101D2000DA013383228360817181860F971F8217C6
:101D3000930769F4EC0128813981260F371F2E5F44
:101D40003F4F318320838A819B8193838283452BFC
:101D500029F4F0937302E093720242C01396FC934D
:101D6000EE931297ED01499159919E01240F351F71
:101D7000E217F30771F480819181840F951F029619
:101D800011969C938E938281938113969C938E934C
:101D90001297E0E0F0E0D80112968D919C91139794
:101DA000009719F0F8018C01F6CF8D919C91980164
:101DB0002E5F3F4F820F931F20917002309171026E
:101DC0002817390769F4309729F41092730210929A
:101DD000720202C013821282109371020093700289
:101DE000DF91CF911F910F910895A0E0B0E0EBEF4C
:101DF000FEE00C94E50CEC01009721F4CB010E946D
:101E0000C80DB8C0FC01E60FF71F9C012250310934
:101E1000E217F30708F4ACC0D9010D911C9111979A
:101E200006171707B0F00530110508F49FC0C80168
:101E300004978617970708F499C002501109061BEA
:101E4000170B019311936D937C93CF010E945D0E4C
:101E50008DC05B01A01AB10A4C01800E911EA091A9
:101E60007202B091730240E050E0E12CF12C109727
:101E700009F44AC0A815B905D1F56D907C90119769
:101E8000630182E0C80ED11CCA14DB0480F1A301F7
:101E90004A195B096A0182E0C80ED11C1296BC90F7
:101EA00012971396AC91B5E0CB16D10440F0B282F4
:101EB000A38351834083D9016D937C930AC00E5F45
:101EC0001F4FC301800F911FF90191838083EB2D78
:101ED000FA2FE114F10431F0D7011396FC93EE933D
:101EE000129744C0F0937302E09372023FC08D9149
:101EF0009C9111974817590708F4AC017D0112967F
:101F00000D90BC91A02DB3CF809170029091710281
:101F100088159905E1F446175707C8F48091040124
:101F200090910501009741F48DB79EB7409108014B
:101F300050910901841B950BE817F907C8F4F09339
:101F40007102E0937002F901718360830FC0CB01CD
:101F50000E94C80D7C01009759F0A801BE010E94A3
:101F6000C40FCE010E945D0EC70104C0CE0102C0A5
:101F700080E090E0CDB7DEB7EEE00C94010D81E09B
:101F800090E0F8940C94EC0FFB01DC0102C001908E
:101F90000D9241505040D8F70895FB01DC018D911E
:101FA000019080190110D9F3990B0895FB01DC0110
:101FB00001900D920020E1F70895FB01DC014150F2
:101FC000504048F001900D920020C9F701C01D92C9
:101FD00041505040E0F7089510E0C2E6D0E004C060
:101FE000FE010E94C20D2196C336D107C9F7F894AD
:021FF000FFCF21
:101FF200E301E30100007402800000000000F90028
:10200200BF0791004001C200A000B4000000000020
:10201200BD07E501E4010302300300000000BE0732
:10202200E701E4018602B2030000000000000000A4
:10203200E401010201024F4E0A004F46460A004FD8
:1020420050454E45440A00434C4F5345440A004410
:1020520048543131004448543231004448543232F9
:0C206200004448543F00696E697400009F
:00000001FF
